{
  "_format": "hh-sol-artifact-1",
  "contractName": "InvestmentCampaign",
  "sourceName": "contracts/InvestmentCampaign.sol",
  "abi": [
    {
      "inputs": [],
      "stateMutability": "nonpayable",
      "type": "constructor"
    },
    {
      "anonymous": false,
      "inputs": [
        {
          "indexed": true,
          "internalType": "uint256",
          "name": "campaignId",
          "type": "uint256"
        },
        {
          "indexed": true,
          "internalType": "address",
          "name": "entrepreneur",
          "type": "address"
        },
        {
          "indexed": false,
          "internalType": "uint256",
          "name": "fundingGoal",
          "type": "uint256"
        }
      ],
      "name": "CampaignCreated",
      "type": "event"
    },
    {
      "anonymous": false,
      "inputs": [
        {
          "indexed": true,
          "internalType": "uint256",
          "name": "campaignId",
          "type": "uint256"
        }
      ],
      "name": "CampaignFunded",
      "type": "event"
    },
    {
      "anonymous": false,
      "inputs": [
        {
          "indexed": true,
          "internalType": "uint256",
          "name": "campaignId",
          "type": "uint256"
        },
        {
          "indexed": true,
          "internalType": "address",
          "name": "entrepreneur",
          "type": "address"
        },
        {
          "indexed": false,
          "internalType": "uint256",
          "name": "amount",
          "type": "uint256"
        }
      ],
      "name": "FundsClaimed",
      "type": "event"
    },
    {
      "anonymous": false,
      "inputs": [
        {
          "indexed": true,
          "internalType": "uint256",
          "name": "campaignId",
          "type": "uint256"
        },
        {
          "indexed": true,
          "internalType": "address",
          "name": "investor",
          "type": "address"
        },
        {
          "indexed": false,
          "internalType": "uint256",
          "name": "amount",
          "type": "uint256"
        }
      ],
      "name": "InvestmentMade",
      "type": "event"
    },
    {
      "anonymous": false,
      "inputs": [
        {
          "indexed": true,
          "internalType": "address",
          "name": "previousOwner",
          "type": "address"
        },
        {
          "indexed": true,
          "internalType": "address",
          "name": "newOwner",
          "type": "address"
        }
      ],
      "name": "OwnershipTransferred",
      "type": "event"
    },
    {
      "anonymous": false,
      "inputs": [
        {
          "indexed": true,
          "internalType": "uint256",
          "name": "campaignId",
          "type": "uint256"
        },
        {
          "indexed": true,
          "internalType": "address",
          "name": "investor",
          "type": "address"
        },
        {
          "indexed": false,
          "internalType": "uint256",
          "name": "amount",
          "type": "uint256"
        }
      ],
      "name": "RefundIssued",
      "type": "event"
    },
    {
      "inputs": [
        {
          "internalType": "uint256",
          "name": "",
          "type": "uint256"
        },
        {
          "internalType": "uint256",
          "name": "",
          "type": "uint256"
        }
      ],
      "name": "campaignInvestments",
      "outputs": [
        {
          "internalType": "address",
          "name": "investor",
          "type": "address"
        },
        {
          "internalType": "uint256",
          "name": "amount",
          "type": "uint256"
        },
        {
          "internalType": "uint256",
          "name": "timestamp",
          "type": "uint256"
        }
      ],
      "stateMutability": "view",
      "type": "function"
    },
    {
      "inputs": [
        {
          "internalType": "uint256",
          "name": "",
          "type": "uint256"
        }
      ],
      "name": "campaigns",
      "outputs": [
        {
          "internalType": "uint256",
          "name": "id",
          "type": "uint256"
        },
        {
          "internalType": "address payable",
          "name": "entrepreneur",
          "type": "address"
        },
        {
          "internalType": "string",
          "name": "title",
          "type": "string"
        },
        {
          "internalType": "string",
          "name": "description",
          "type": "string"
        },
        {
          "internalType": "uint256",
          "name": "fundingGoal",
          "type": "uint256"
        },
        {
          "internalType": "uint256",
          "name": "currentAmount",
          "type": "uint256"
        },
        {
          "internalType": "uint256",
          "name": "deadline",
          "type": "uint256"
        },
        {
          "internalType": "bool",
          "name": "isActive",
          "type": "bool"
        },
        {
          "internalType": "bool",
          "name": "isFunded",
          "type": "bool"
        },
        {
          "internalType": "bool",
          "name": "isClaimed",
          "type": "bool"
        }
      ],
      "stateMutability": "view",
      "type": "function"
    },
    {
      "inputs": [
        {
          "internalType": "uint256",
          "name": "_campaignId",
          "type": "uint256"
        }
      ],
      "name": "claimFunds",
      "outputs": [],
      "stateMutability": "nonpayable",
      "type": "function"
    },
    {
      "inputs": [
        {
          "internalType": "string",
          "name": "_title",
          "type": "string"
        },
        {
          "internalType": "string",
          "name": "_description",
          "type": "string"
        },
        {
          "internalType": "uint256",
          "name": "_fundingGoal",
          "type": "uint256"
        },
        {
          "internalType": "uint256",
          "name": "_durationInDays",
          "type": "uint256"
        }
      ],
      "name": "createCampaign",
      "outputs": [
        {
          "internalType": "uint256",
          "name": "",
          "type": "uint256"
        }
      ],
      "stateMutability": "nonpayable",
      "type": "function"
    },
    {
      "inputs": [],
      "name": "getCampaignCount",
      "outputs": [
        {
          "internalType": "uint256",
          "name": "",
          "type": "uint256"
        }
      ],
      "stateMutability": "view",
      "type": "function"
    },
    {
      "inputs": [
        {
          "internalType": "uint256",
          "name": "_campaignId",
          "type": "uint256"
        }
      ],
      "name": "getCampaignDetails",
      "outputs": [
        {
          "internalType": "address",
          "name": "entrepreneur",
          "type": "address"
        },
        {
          "internalType": "string",
          "name": "title",
          "type": "string"
        },
        {
          "internalType": "string",
          "name": "description",
          "type": "string"
        },
        {
          "internalType": "uint256",
          "name": "fundingGoal",
          "type": "uint256"
        },
        {
          "internalType": "uint256",
          "name": "currentAmount",
          "type": "uint256"
        },
        {
          "internalType": "uint256",
          "name": "deadline",
          "type": "uint256"
        },
        {
          "internalType": "bool",
          "name": "isActive",
          "type": "bool"
        },
        {
          "internalType": "bool",
          "name": "isFunded",
          "type": "bool"
        },
        {
          "internalType": "bool",
          "name": "isClaimed",
          "type": "bool"
        }
      ],
      "stateMutability": "view",
      "type": "function"
    },
    {
      "inputs": [
        {
          "internalType": "uint256",
          "name": "_campaignId",
          "type": "uint256"
        },
        {
          "internalType": "address",
          "name": "_investor",
          "type": "address"
        }
      ],
      "name": "getInvestorContribution",
      "outputs": [
        {
          "internalType": "uint256",
          "name": "",
          "type": "uint256"
        }
      ],
      "stateMutability": "view",
      "type": "function"
    },
    {
      "inputs": [
        {
          "internalType": "uint256",
          "name": "_campaignId",
          "type": "uint256"
        }
      ],
      "name": "invest",
      "outputs": [],
      "stateMutability": "payable",
      "type": "function"
    },
    {
      "inputs": [
        {
          "internalType": "uint256",
          "name": "",
          "type": "uint256"
        },
        {
          "internalType": "address",
          "name": "",
          "type": "address"
        }
      ],
      "name": "investorContributions",
      "outputs": [
        {
          "internalType": "uint256",
          "name": "",
          "type": "uint256"
        }
      ],
      "stateMutability": "view",
      "type": "function"
    },
    {
      "inputs": [],
      "name": "owner",
      "outputs": [
        {
          "internalType": "address",
          "name": "",
          "type": "address"
        }
      ],
      "stateMutability": "view",
      "type": "function"
    },
    {
      "inputs": [],
      "name": "renounceOwnership",
      "outputs": [],
      "stateMutability": "nonpayable",
      "type": "function"
    },
    {
      "inputs": [
        {
          "internalType": "uint256",
          "name": "_campaignId",
          "type": "uint256"
        }
      ],
      "name": "requestRefund",
      "outputs": [],
      "stateMutability": "nonpayable",
      "type": "function"
    },
    {
      "inputs": [
        {
          "internalType": "address",
          "name": "newOwner",
          "type": "address"
        }
      ],
      "name": "transferOwnership",
      "outputs": [],
      "stateMutability": "nonpayable",
      "type": "function"
    }
  ],
  "bytecode": "0x608060405234801561001057600080fd5b50600160005561001f33610024565b610076565b600180546001600160a01b038381166001600160a01b0319831681179093556040519116919082907f8be0079c531659141344cd1fd0a4f28419497f9722a3daafe3b4186f6b6457e090600090a35050565b611562806100856000396000f3fe6080604052600436106100c25760003560e01c80636caa92181161007f578063a318f26911610059578063a318f26914610238578063a4b2409e14610258578063d993de6214610278578063f2fde38b146102ad57600080fd5b80636caa9218146101e6578063715018a6146101fb5780638da5cb5b1461021057600080fd5b8063141961bc146100c7578063163eff1c146101065780631b55e3381461014b5780632afcf4801461016d57806340a0841b146101805780635d75a80f146101ae575b600080fd5b3480156100d357600080fd5b506100e76100e23660046110b5565b6102cd565b6040516100fd9a99989796959493929190611114565b60405180910390f35b34801561011257600080fd5b5061012661012136600461118e565b61043f565b604080516001600160a01b0390941684526020840192909252908201526060016100fd565b34801561015757600080fd5b5061016b6101663660046110b5565b61048b565b005b61016b61017b3660046110b5565b6106c0565b34801561018c57600080fd5b506101a061019b3660046111cc565b610912565b6040519081526020016100fd565b3480156101ba57600080fd5b506101a06101c93660046111cc565b600560209081526000928352604080842090915290825290205481565b3480156101f257600080fd5b506101a061093c565b34801561020757600080fd5b5061016b61094c565b34801561021c57600080fd5b506001546040516001600160a01b0390911681526020016100fd565b34801561024457600080fd5b506101a061025336600461129b565b610960565b34801561026457600080fd5b5061016b6102733660046110b5565b610b9e565b34801561028457600080fd5b506102986102933660046110b5565b610d99565b6040516100fd9998979695949392919061130f565b3480156102b957600080fd5b5061016b6102c8366004611381565b610f3a565b60036020526000908152604090208054600182015460028301805492936001600160a01b03909216926102ff906113a3565b80601f016020809104026020016040519081016040528092919081815260200182805461032b906113a3565b80156103785780601f1061034d57610100808354040283529160200191610378565b820191906000526020600020905b81548152906001019060200180831161035b57829003601f168201915b50505050509080600301805461038d906113a3565b80601f01602080910402602001604051908101604052809291908181526020018280546103b9906113a3565b80156104065780601f106103db57610100808354040283529160200191610406565b820191906000526020600020905b8154815290600101906020018083116103e957829003601f168201915b505050506004830154600584015460068501546007909501549394919390925060ff80821691610100810482169162010000909104168a565b6004602052816000526040600020818154811061045b57600080fd5b60009182526020909120600390910201805460018201546002909201546001600160a01b03909116935090915083565b610493610fb0565b600081815260036020526040902060018101546001600160a01b0316331461050c5760405162461bcd60e51b815260206004820152602160248201527f4f6e6c7920656e7472657072656e6575722063616e20636c61696d2066756e646044820152607360f81b60648201526084015b60405180910390fd5b6007810154610100900460ff1661055e5760405162461bcd60e51b815260206004820152601660248201527510d85b5c185a59db881a5cc81b9bdd08199d5b99195960521b6044820152606401610503565b600781015462010000900460ff16156105b15760405162461bcd60e51b8152602060048201526015602482015274119d5b991cc8185b1c9958591e4818db185a5b5959605a1b6044820152606401610503565b60078101805462ff000019166201000017905560058101805460009182905560018301546040519192916001600160a01b039091169083908381818185875af1925050503d8060008114610621576040519150601f19603f3d011682016040523d82523d6000602084013e610626565b606091505b50509050806106695760405162461bcd60e51b815260206004820152600f60248201526e151c985b9cd9995c8819985a5b1959608a1b6044820152606401610503565b60018301546040518381526001600160a01b039091169085907fa4eb50103b0591feb0bc913f479d92af5eb7ea33e8c397b49bab52ce6af26cb5906020015b60405180910390a35050506106bd6001600055565b50565b6106c8610fb0565b6000818152600360205260409020600781015460ff166107235760405162461bcd60e51b815260206004820152601660248201527543616d706169676e206973206e6f742061637469766560501b6044820152606401610503565b806006015442111561076c5760405162461bcd60e51b815260206004820152601260248201527110d85b5c185a59db881a185cc8195b99195960721b6044820152606401610503565b600034116107cd5760405162461bcd60e51b815260206004820152602860248201527f496e766573746d656e7420616d6f756e74206d75737420626520677265617465604482015267072207468616e20360c41b6064820152608401610503565b348160050160008282546107e191906113f3565b909155505060008281526005602090815260408083203384529091528120805434929061080f9084906113f3565b909155505060008281526004602090815260408083208151606081018352338082523482860181815242848701908152855460018082018855968a52988890209451600390990290940180546001600160a01b0319166001600160a01b0390991698909817885551938701939093559051600290950194909455905190815284917f89728d542d77fad9fe42c7d1f032c2b85f64cf938d754183b0e95359fbfac8a1910160405180910390a380600401548160050154106109075760078101805461ffff191661010017905560405182907f037fbd531560b99c45925a766dd7d625fe645da7af58bad4007af8b865fba10190600090a25b506106bd6001600055565b60008281526005602090815260408083206001600160a01b03851684529091529020545b92915050565b600061094760025490565b905090565b610954611009565b61095e6000611063565b565b60008083116109bd5760405162461bcd60e51b815260206004820152602360248201527f46756e64696e6720676f616c206d75737420626520677265617465722074686160448201526206e20360ec1b6064820152608401610503565b60008211610a0d5760405162461bcd60e51b815260206004820152601f60248201527f4475726174696f6e206d7573742062652067726561746572207468616e2030006044820152606401610503565b610a1b600280546001019055565b6000610a2660025490565b9050604051806101400160405280828152602001336001600160a01b03168152602001878152602001868152602001858152602001600081526020018462015180610a719190611406565b610a7b90426113f3565b81526001602080830182905260006040808501829052606090940181905285815260038252839020845181559084015191810180546001600160a01b0319166001600160a01b0390931692909217909155908201516002820190610adf908261146c565b5060608201516003820190610af4908261146c565b506080820151600482015560a0820151600582015560c0820151600682015560e082015160079091018054610100808501516101209095015161ffff1990921693151561ff001916939093179315159092029290921762ff000019166201000091151591909102179055604051848152339082907f63e3678c8493a16f8ba43ae9e547231762ca04526dac2c388bd2c26d894018519060200160405180910390a395945050505050565b610ba6610fb0565b600081815260036020526040902060068101544211610c075760405162461bcd60e51b815260206004820152601860248201527f43616d706169676e206973207374696c6c2061637469766500000000000000006044820152606401610503565b6007810154610100900460ff1615610c615760405162461bcd60e51b815260206004820152601760248201527f43616d706169676e20776173207375636365737366756c0000000000000000006044820152606401610503565b6000828152600560209081526040808320338452909152902054610cbd5760405162461bcd60e51b8152602060048201526013602482015272139bc81a5b9d995cdd1b595b9d08199bdd5b99606a1b6044820152606401610503565b600082815260056020908152604080832033808552925280832080549084905590519092919083908381818185875af1925050503d8060008114610d1d576040519150601f19603f3d011682016040523d82523d6000602084013e610d22565b606091505b5050905080610d655760405162461bcd60e51b815260206004820152600f60248201526e151c985b9cd9995c8819985a5b1959608a1b6044820152606401610503565b604051828152339085907f7a482fdeb6bc9a1376f597068a214a7a39472bb2eff1b8cad21ba04f49ddca1b906020016106a8565b600081815260036020819052604082206001810154600482015460058301546006840154600785015460028601805460609889988b988998899889988998899895976001600160a01b039095169688019460ff80831692610100810482169262010000909104909116908890610e0e906113a3565b80601f0160208091040260200160405190810160405280929190818152602001828054610e3a906113a3565b8015610e875780601f10610e5c57610100808354040283529160200191610e87565b820191906000526020600020905b815481529060010190602001808311610e6a57829003601f168201915b50505050509750868054610e9a906113a3565b80601f0160208091040260200160405190810160405280929190818152602001828054610ec6906113a3565b8015610f135780601f10610ee857610100808354040283529160200191610f13565b820191906000526020600020905b815481529060010190602001808311610ef657829003601f168201915b50505050509650995099509950995099509950995099509950509193959799909294969850565b610f42611009565b6001600160a01b038116610fa75760405162461bcd60e51b815260206004820152602660248201527f4f776e61626c653a206e6577206f776e657220697320746865207a65726f206160448201526564647265737360d01b6064820152608401610503565b6106bd81611063565b6002600054036110025760405162461bcd60e51b815260206004820152601f60248201527f5265656e7472616e637947756172643a207265656e7472616e742063616c6c006044820152606401610503565b6002600055565b6001546001600160a01b0316331461095e5760405162461bcd60e51b815260206004820181905260248201527f4f776e61626c653a2063616c6c6572206973206e6f7420746865206f776e65726044820152606401610503565b600180546001600160a01b038381166001600160a01b0319831681179093556040519116919082907f8be0079c531659141344cd1fd0a4f28419497f9722a3daafe3b4186f6b6457e090600090a35050565b6000602082840312156110c757600080fd5b5035919050565b6000815180845260005b818110156110f4576020818501810151868301820152016110d8565b506000602082860101526020601f19601f83011685010191505092915050565b8a81526001600160a01b038a1660208201526101406040820181905260009061113f8382018c6110ce565b90508281036060840152611153818b6110ce565b6080840199909952505060a081019590955260c085019390935290151560e08401521515610100830152151561012090910152949350505050565b600080604083850312156111a157600080fd5b50508035926020909101359150565b80356001600160a01b03811681146111c757600080fd5b919050565b600080604083850312156111df57600080fd5b823591506111ef602084016111b0565b90509250929050565b634e487b7160e01b600052604160045260246000fd5b600082601f83011261121f57600080fd5b813567ffffffffffffffff8082111561123a5761123a6111f8565b604051601f8301601f19908116603f01168101908282118183101715611262576112626111f8565b8160405283815286602085880101111561127b57600080fd5b836020870160208301376000602085830101528094505050505092915050565b600080600080608085870312156112b157600080fd5b843567ffffffffffffffff808211156112c957600080fd5b6112d58883890161120e565b955060208701359150808211156112eb57600080fd5b506112f88782880161120e565b949794965050505060408301359260600135919050565b6001600160a01b038a168152610120602082018190526000906113348382018c6110ce565b90508281036040840152611348818b6110ce565b60608401999099525050608081019590955260a085019390935290151560c0840152151560e08301521515610100909101529392505050565b60006020828403121561139357600080fd5b61139c826111b0565b9392505050565b600181811c908216806113b757607f821691505b6020821081036113d757634e487b7160e01b600052602260045260246000fd5b50919050565b634e487b7160e01b600052601160045260246000fd5b80820180821115610936576109366113dd565b8082028115828204841417610936576109366113dd565b601f82111561146757600081815260208120601f850160051c810160208610156114445750805b601f850160051c820191505b8181101561146357828155600101611450565b5050505b505050565b815167ffffffffffffffff811115611486576114866111f8565b61149a8161149484546113a3565b8461141d565b602080601f8311600181146114cf57600084156114b75750858301515b600019600386901b1c1916600185901b178555611463565b600085815260208120601f198616915b828110156114fe578886015182559484019460019091019084016114df565b508582101561151c5787850151600019600388901b60f8161c191681555b5050505050600190811b0190555056fea264697066735822122032bf2944dbbd9d242e8385e8b33bd74a0fb58b1a2ab329fc246831b1aece21f964736f6c63430008130033",
  "linkReferences": {},
  "deployedLinkReferences": {}
}